{
    "contractName": "Faucet",
    "abi": [
        {
            "inputs": [
                {
                    "internalType": "address",
                    "name": "_existingTokenAddress",
                    "type": "address"
                }
            ],
            "stateMutability": "nonpayable",
            "type": "constructor"
        },
        {
            "anonymous": false,
            "inputs": [
                {
                    "indexed": true,
                    "internalType": "address",
                    "name": "previousOwner",
                    "type": "address"
                },
                {
                    "indexed": true,
                    "internalType": "address",
                    "name": "newOwner",
                    "type": "address"
                }
            ],
            "name": "OwnershipTransferred",
            "type": "event"
        },
        {
            "inputs": [],
            "name": "existingTokenContract",
            "outputs": [
                {
                    "internalType": "contract PandaToken",
                    "name": "",
                    "type": "address"
                }
            ],
            "stateMutability": "view",
            "type": "function"
        },
        {
            "inputs": [],
            "name": "faucetBalance",
            "outputs": [
                {
                    "internalType": "uint256",
                    "name": "",
                    "type": "uint256"
                }
            ],
            "stateMutability": "view",
            "type": "function"
        },
        {
            "inputs": [
                {
                    "internalType": "address",
                    "name": "user",
                    "type": "address"
                }
            ],
            "name": "getCooldownForAddress",
            "outputs": [
                {
                    "internalType": "uint256",
                    "name": "",
                    "type": "uint256"
                }
            ],
            "stateMutability": "view",
            "type": "function"
        },
        {
            "inputs": [
                {
                    "internalType": "address",
                    "name": "",
                    "type": "address"
                }
            ],
            "name": "lastRequestTimestamp",
            "outputs": [
                {
                    "internalType": "uint256",
                    "name": "",
                    "type": "uint256"
                }
            ],
            "stateMutability": "view",
            "type": "function"
        },
        {
            "inputs": [],
            "name": "owner",
            "outputs": [
                {
                    "internalType": "address",
                    "name": "",
                    "type": "address"
                }
            ],
            "stateMutability": "view",
            "type": "function"
        },
        {
            "inputs": [],
            "name": "renounceOwnership",
            "outputs": [],
            "stateMutability": "nonpayable",
            "type": "function"
        },
        {
            "inputs": [],
            "name": "requestCooldown",
            "outputs": [
                {
                    "internalType": "uint256",
                    "name": "",
                    "type": "uint256"
                }
            ],
            "stateMutability": "view",
            "type": "function"
        },
        {
            "inputs": [],
            "name": "requestTokens",
            "outputs": [],
            "stateMutability": "nonpayable",
            "type": "function"
        },
        {
            "inputs": [
                {
                    "internalType": "address",
                    "name": "user",
                    "type": "address"
                },
                {
                    "internalType": "uint256",
                    "name": "cooldown",
                    "type": "uint256"
                }
            ],
            "name": "setCooldownForAddress",
            "outputs": [],
            "stateMutability": "nonpayable",
            "type": "function"
        },
        {
            "inputs": [
                {
                    "internalType": "address",
                    "name": "newOwner",
                    "type": "address"
                }
            ],
            "name": "transferOwnership",
            "outputs": [],
            "stateMutability": "nonpayable",
            "type": "function"
        }
    ],
    "bytecode": "608060405261038460025534801561001657600080fd5b506040516106df3803806106df83398101604081905261003591610112565b61003e336100c2565b600180546001600160a01b0319166001600160a01b0383169081179091556040516370a0823160e01b81523360048201526370a0823190602401602060405180830381865afa158015610095573d6000803e3d6000fd5b505050506040513d601f19601f820116820180604052508101906100b99190610142565b6003555061015b565b600080546001600160a01b038381166001600160a01b0319831681178455604051919092169283917f8be0079c531659141344cd1fd0a4f28419497f9722a3daafe3b4186f6b6457e09190a35050565b60006020828403121561012457600080fd5b81516001600160a01b038116811461013b57600080fd5b9392505050565b60006020828403121561015457600080fd5b5051919050565b6105758061016a6000396000f3fe608060405234801561001057600080fd5b506004361061009e5760003560e01c806371a762501161006657806371a762501461010f5780638da5cb5b146101225780639059891914610133578063a9860c8114610153578063f2fde38b1461015c57600080fd5b8063121dcd6b146100a35780631720f5d2146100d357806323681623146100ea578063359cf2b7146100fd578063715018a614610107575b600080fd5b6001546100b6906001600160a01b031681565b6040516001600160a01b0390911681526020015b60405180910390f35b6100dc60035481565b6040519081526020016100ca565b6100dc6100f8366004610495565b61016f565b6101056101a9565b005b610105610310565b61010561011d3660046104b7565b610324565b6000546001600160a01b03166100b6565b6100dc610141366004610495565b60046020526000908152604090205481565b6100dc60025481565b61010561016a366004610495565b610356565b6002546001600160a01b0382166000908152600460205260408120549091429161019991906104f7565b6101a3919061050a565b92915050565b600254336000908152600460205260409020546101c6904261050a565b10156102195760405162461bcd60e51b815260206004820152601b60248201527f436f6f6c646f776e20706572696f64206e6f7420656c6170736564000000000060448201526064015b60405180910390fd5b336000908152600460205260409020429055600354674563918244f40000908111156102805760405162461bcd60e51b81526020600482015260166024820152754661756365742062616c616e636520746f6f206c6f7760501b6044820152606401610210565b8060036000828254610292919061050a565b909155505060015460405163a9059cbb60e01b8152336004820152602481018390526001600160a01b039091169063a9059cbb906044016020604051808303816000875af11580156102e8573d6000803e3d6000fd5b505050506040513d601f19601f8201168201806040525081019061030c919061051d565b5050565b6103186103cf565b6103226000610429565b565b61032c6103cf565b610336814261050a565b6001600160a01b0390921660009081526004602052604090209190915550565b61035e6103cf565b6001600160a01b0381166103c35760405162461bcd60e51b815260206004820152602660248201527f4f776e61626c653a206e6577206f776e657220697320746865207a65726f206160448201526564647265737360d01b6064820152608401610210565b6103cc81610429565b50565b6000546001600160a01b031633146103225760405162461bcd60e51b815260206004820181905260248201527f4f776e61626c653a2063616c6c6572206973206e6f7420746865206f776e65726044820152606401610210565b600080546001600160a01b038381166001600160a01b0319831681178455604051919092169283917f8be0079c531659141344cd1fd0a4f28419497f9722a3daafe3b4186f6b6457e09190a35050565b80356001600160a01b038116811461049057600080fd5b919050565b6000602082840312156104a757600080fd5b6104b082610479565b9392505050565b600080604083850312156104ca57600080fd5b6104d383610479565b946020939093013593505050565b634e487b7160e01b600052601160045260246000fd5b808201808211156101a3576101a36104e1565b818103818111156101a3576101a36104e1565b60006020828403121561052f57600080fd5b815180151581146104b057600080fdfea2646970667358221220c7d7c815629e05cdcdc18cf764c95708b190ca853f9c7fb90c7f125c3ea97a7a64736f6c63430008130033",
    "sourcePath": "c:/Users/ChristianNnorom/Repair/Crypto_faucet/contracts/Faucet.sol",
    "compiler": {
        "name": "solc",
        "version": "0.8.19+commit.7dd6d404"
    },
    "functionHashes": {
        "existingTokenContract()": "121dcd6b",
        "faucetBalance()": "1720f5d2",
        "getCooldownForAddress(address)": "23681623",
        "lastRequestTimestamp(address)": "90598919",
        "owner()": "8da5cb5b",
        "renounceOwnership()": "715018a6",
        "requestCooldown()": "a9860c81",
        "requestTokens()": "359cf2b7",
        "setCooldownForAddress(address,uint256)": "71a76250",
        "transferOwnership(address)": "f2fde38b"
    },
    "gasEstimates": {
        "creation": {
            "codeDepositCost": "279400",
            "executionCost": "infinite",
            "totalCost": "infinite"
        },
        "external": {
            "existingTokenContract()": "2327",
            "faucetBalance()": "2318",
            "getCooldownForAddress(address)": "infinite",
            "lastRequestTimestamp(address)": "2563",
            "owner()": "2342",
            "renounceOwnership()": "infinite",
            "requestCooldown()": "2361",
            "requestTokens()": "infinite",
            "setCooldownForAddress(address,uint256)": "24765",
            "transferOwnership(address)": "28421"
        }
    }
}